:020000040000FA
:060000000A128A110C280F
:10000800FE00030EF2000A08F3000A128A11AA2F52
:100018000A128A110F2883135830FD000730FE009A
:100028006730FF00413084000A128A11C2270A1281
:100038008A11D801D901DA01DB01F801F90183013C
:100048000A128A113928FF0000308A007F088207C7
:100058002C280A128A119C2E0A128A11EC2F0A12D5
:100068008A115B2E0A128A11312A83120313BA01EC
:100078000A128A115B260A128A110A128A11E127CA
:100088000A128A11CE30F400FF30F5009630F600DF
:100098000030F7000A128A11D1270A128A1154284F
:1000A8000A128A11B1250A128A1183120313B700A2
:1000B8003708B900012ABA01BA0A262AA201A301FF
:1000C8002630B7003708A4000A128A119C260A12A3
:1000D8008A11D030F4000730F5000A128A117E2701
:1000E8000A128A110A128A11EC270A128A110A3096
:1000F80083120313B7003708BA00262AA201A30106
:100108005930B7003708A4000A128A119C260A122F
:100118008A11D030F4000730F5000A128A117E27C0
:100128000A128A110A128A11EC270A128A110F3050
:1001380083120313B7003708BA00262AA201A301C5
:100148008C30B7003708A4000A128A119C260A12BC
:100158008A1183120313A201A20AA3010130B70076
:100168003708A4000A128A119C260A128A113B3009
:100178000A128A11C2230A128A1183120313AB01CD
:10018800AB0A0630B7003708AC003C08AE003B08A5
:10019800AD000430B8003808AF000A128A113122C5
:1001A8000A128A11103083120313B7003708BA00F5
:1001B800262AAB01AB0A0630B7003708AC003C086A
:1001C800AE003B08AD000430B8003808AF000A1292
:1001D8008A1131220A128A11831203133C08803AC9
:1001E800FF0080307F02031DFB2865303B02031CA3
:1001F800FE28FF2826290A128A11EC270A128A11DA
:1002080083120313A201A3011530B7003708A40015
:100218000A128A119C260A128A1183120313A20158
:10022800A20AA3016A30B7003708A4000A128A118B
:100238009C260A128A11113083120313B70037085B
:10024800BA002629831203133C08803AFF00803045
:100258007F02031D312914303B0203183429352944
:100268005C290A128A11EC270A128A1183120313D5
:10027800A201A3011530B7003708A4000A128A1199
:100288009C260A128A1183120313A201A20AA3014F
:100298007B30B7003708A4000A128A119C260A127C
:1002A8008A11123083120313B7003708BA005C2989
:1002B8003130831203133906031D63296429702919
:1002C8000A128A11EC270A128A11143083120313B6
:1002D800B7003708BA00702943303906031D75295D
:1002E8007629262A0A128A11EC270A128A11643002
:1002F80083120313B7003708BA00262A262A3B3090
:100308000A128A11C2230A128A11831203133C08A3
:10031800803AFF0080307F02031D942964303B023D
:10032800031897299829262A0A128A11EC270A12F3
:100338008A110F3083120313B7003708BA00262A30
:10034800262A3B300A128A11C2230A128A11831202
:1003580003133C08803AFF0080307F02031DB62952
:1003680015303B02031CB929BA29262A0A128A1118
:10037800EC270A128A110F3083120313B7003708CB
:10038800BA00262A262AA201A3013730B700370867
:10039800A4000A128A119C260A128A112A30831292
:1003A80003133906031DD929DA29262A0A128A11C4
:1003B800EC270A128A110F3083120313B70037088B
:1003C800BA00262A262AA201A3014830B700370816
:1003D800A4000A128A119C260A128A112A30831252
:1003E80003133906031DF929FA29262A0F30B70005
:1003F8003708BA00262A262A262A3A08B700B8015A
:100408003808003A0319092A262A3708003A031936
:100418005F28013A031962280B3A03198228053A22
:100428000319A2281F3A0319DD28013A0319832961
:10043800033A0319A529063A0319C729703A03197B
:10044800E729262A3B300A128A11C2230A128A1186
:10045800542854280A128A110C2883120313AE1B3D
:10046800362A382A0130392A0030B0003008B40062
:1004780034080319402A412A472AAD09AE09AD0AB2
:100488000319AE0A472A2C08B0003008F7002B08D9
:100498000A128A1195270A128A111030831203133F
:1004A800B5002730B6000530B0003008B3008B2AFD
:1004B800831203133608A3003508A2002E08A500EE
:1004C8002D08A4000A128A11D9240A128A1183124B
:1004D800031322082304031D722A732AA52A013054
:1004E800B302772AA52A0A30A2000030A3003608F2
:1004F800A5003508A4000A128A11D9240A128A1103
:10050800831203132308B6002208B5008B2A360885
:10051800803AFF0080307F02031D942A01303502A3
:100528000318972A982A5C2AA52AA52A20300A1295
:100538008A11FC260A128A11013083120313AF02B2
:10054800A52A8312031333083407B000B101B10D93
:100558003108803AB20080303202031DB52A2F08D4
:1005680030020318B82AB92AC32A023083120313A7
:100578002F020318C02AC12A9A2AC32AC32A83121F
:10058800031334080319C92ACA2AD12A2D300A129A
:100598008A11FC260A128A11D12A831203133608FB
:1005A800A3003508A2002E08A5002D08A4000A12F1
:1005B8008A11D9240A128A11831203132208303EA1
:1005C8000A128A11FC260A128A11831203133608AA
:1005D800F5003508F4002E08F7002D08F6000A1279
:1005E8008A114C250A128A11750883120313AE006A
:1005F8007408AD000A30A2000030A3003608A50038
:100608003508A4000A128A11D9240A128A11831201
:1006180003132308B6002208B5003608803AFF0005
:1006280080307F02031D1A2B0130350203181D2B61
:100638001E2BD12A1F2B080003308A000408840AC5
:1006480082070034543465346D3470343A342034BD
:1006580020342034203420344334203420342034CF
:100668002034203420342034203400342034203402
:1006780020342034203441344C34453452345434FA
:1006880041342034203420342034203400342034C1
:10069800203420342034573445344C3443344F34D8
:1006A8004D34453420342034203420342034003470
:1006B80020342034203449346E3473347434613433
:1006C8006C346134633461346F3420342034203422
:1006D80000342034203420344D3461346E34753481
:1006E800743465346E34633461346F3420342034A8
:1006F80020340034203454346534523474346F3424
:1007080053342034503472344F346A3445346334AB
:10071800543420340034543445344D345034453442
:1007280052344134543455345234413420344134F1
:100738004C34543441340034543445344D345034FA
:1007480045345234413454345534523441342034CD
:100758004234413449345834003431343A34493419
:100768006E347334743420342034203443343A34AF
:100778004D3461346E347534743400348312031389
:10078800B4000A128A11F3270A128A117408831214
:100798000313B0007508B100B201B3015A09AC00E7
:1007A8005B09AD00AC0A0319AD0A58082C07A00074
:1007B80059080318590A2D07A100A201A11BA20379
:1007C8002208A3003308A7003208A6003108A500B4
:1007D8003008A4000A128A110F260A128A118312FD
:1007E80003132308B3002208B2002108B10020082F
:1007F800B0000A30AC00330DB30CB20CB10CB00C25
:10080800AC0BFF2B30085A07AC0031080318310A2B
:100818005B07AD00340884002C0883138000840A29
:100828002D0880000530A2000030A30034088400A1
:100838000008F400840A0008F5000930F6000030CA
:10084800F7000A128A11CE260A128A117508831235
:100858000313A5007408A4000A128A11D9240A12E5
:100868008A11831203132208203EAC0023080318C0
:10087800013E003EAD003408043E84002C0883137A
:100888008000840A2D088000340884000008AC0029
:10089800840A0008AD002C08113EAE002D0803188C
:1008A800013E013EAF003408023E84002E0880005D
:1008B800840A2F0880000800F60083120313081228
:1008C8007608F40004300310F40CFF3E031D672C77
:1008D80008087406F039740688008812760303192C
:1008E800762C772C7E2C02307606031D7C2C7D2CF2
:1008F800882C7E2C0330F5009730F400F40B822C02
:10090800F50B822C872C8D2C0D30F400F40B8A2CDF
:100918008D2C831203138816F0307605F4002030EE
:100928007406031D982C992CB02C08127608F40034
:1009380004300310F40CFF3E031D9D2C08087406B8
:10094800F0397406880088120D30F400F40BAA2CD4
:10095800831203138816B02C08120F307605F400A2
:1009680008087406F039740688008812760303199B
:10097800BE2CBF2CC62C02307606031DC42CC52CF9
:10098800D02CC62C0330F5009730F400F40BCA2C99
:10099800F50BCA2CCF2CD52C0D30F400F40BD22C2F
:1009A800D52C831203138816080083120313A80199
:1009B800A31FDF2CE02CE82CA209A309A20A031923
:1009C800A30AA801A80AE82CA51FEB2CEC2CF62CEE
:1009D800A409A509A40A0319A50A0130A600260836
:1009E800A806F62CA901AA01220823040319FD2C44
:1009F800FE2C3B2DA701A70A0D2D01300310A20DD7
:100A0800A30DFF3E031D022D0130A6002608A707EF
:100A18000D2DA31F102D112D012D132D132D013078
:100A28000310A90DAA0DFF3E031D142D230825024E
:100A3800031D202D22082402031C232D242D2C2DD8
:100A48002208A4022308031CA503A50229142C2D9F
:100A580001300310A30CA20CFF3E031D2D2D013005
:100A6800A702031D382D392D132D3B2D3B2D2808AA
:100A780003193F2D402D462DA909AA09A90A0319D2
:100A8800AA0A462D2A08A3002908A2004B2D08000F
:100A980083120313A201F71F522D532D5B2DF60964
:100AA800F709F60A0319F70AA201A20A5B2DF51F36
:100AB8005E2D5F2D652DF409F509F40A0319F50A71
:100AC800652D7408750403196A2D6B2DA02DA101DD
:100AD800A10A7A2D01300310F40DF50DFF3E031D18
:100AE8006F2D0130A0002008A1077A2DF51F7D2D5C
:100AF8007E2D6E2D802D802D75087702031D862D85
:100B080074087602031C892D8A2D912D7408F6022B
:100B18007508031CF703F702912D01300310F50C3B
:100B2800F40CFF3E031D922D0130A102031D9D2DE3
:100B38009E2D802DA02DA02D22080319A42DA52DB2
:100B4800AB2DF609F709F60A0319F70AAB2D770852
:100B5800F5007608F400B02D080083120313A001F5
:100B6800A20104302202031CBA2DBB2DBD2D0C2E70
:100B78000C2E0130F400220AC32D0310F40DFF3EA1
:100B8800031DC12D74088600A10104302102031C35
:100B9800CE2DCF2DD12D012E012E1030F400210A9B
:100BA800D72D0310F40DFF3E031DD52D740806053F
:100BB8000319DF2DE02DF62D2208F4000230031072
:100BC800F40DFF3E031DE32D41307407F5002108A5
:100BD8007507F6007608840083130008F700770885
:100BE800A000F62D0130F4007408A107043021029A
:100BF800031CFF2D002ED12D012E0130F4007408A6
:100C0800A20704302202031C0A2E0B2EBD2D0C2E27
:100C180020080E2E0800003083120313AB000030AA
:100C2800AA000030A9000030A8001A2E201C1D2E92
:100C38001E2E362E2408A807250803110318013E86
:100C48000319272EA907260803110318013E0319C3
:100C58002E2EAA07270803110318013E0319352E63
:100C6800AB07362E0130F4000310A40DA50DA60D18
:100C7800A70DF40B382E01300310A30CA20CA10C05
:100C8800A00CFF3E031D402E23082204210420044B
:100C9800031D4F2E502E1A2E512E2B08A3002A0862
:100CA800A2002908A1002808A0005A2E08006430D4
:100CB800F4000030F5000A128A117E270A128A1100
:100CC8008316031308108810081188110812881257
:100CD800081788176430F4000030F5000A128A11EA
:100CE8007E270A128A1183120313881628300A12E3
:100CF8008A1160240A128A110C300A128A1160249F
:100D08000A128A1101300A128A1160240A128A1101
:100D180002300A128A1160240A128A116430F4001F
:100D28000030F5000A128A117E270A128A1108007B
:100D3800831203132308A5002508F70022080A12C6
:100D48008A1195270A128A11BE2E831203132408CA
:100D580084000A128A1120230A128A110A128A119F
:100D6800FC260A128A11013083120313A5002508F4
:100D7800A407BE2E83120313240884000A128A11C2
:100D880020230A128A11003A031DCB2ECC2EA92E3D
:100D9800CD2E080083120313A001A101D32E741CC9
:100DA800D62ED72EDF2E760883120313A00703183A
:100DB800A10A7708A10701300310F60DF70DFF3ED1
:100DC800031DE02E01300310F50CF40CFF3E031D4B
:100DD800E72E74087504031DF22EF32ED32EF42E7D
:100DE800831203132108F5002008F400FB2E0800E5
:100DF800F5008312031308167508F4000430031075
:100E0800F40CFF3E031D032F08087406F03974061E
:100E1800880088120D30F400F40B102F831203138E
:100E2800881608160F307505F40008087406F0399E
:100E38007406880088120D30F400F40B212F8312F9
:100E48000313881608008B138316031708148312DC
:100E580003131F083F3980389F00831603131F129E
:100E68009F12C330831203139F05831603139F1722
:100E7800831203131F140B17831603130C178B17F6
:100E8800831203139F140800831203131E08F00033
:100E9800F1017008F8007108F90008300310F80D26
:100EA800F90DFF3E031D522F831603131E08F00091
:100EB800F1017008F8070318F90A7108F907831295
:100EC80003139F140800313432343334413434343A
:100ED80035343634423437343834393443342A34A8
:100EE8003034233444340734003401340A340434AD
:100EF800003400348D2F0130F4020030031CF50358
:100F0800F502C730F600882FF60B872F8B2F8C2F12
:100F18008D2F74087504031D922F932F7F2F942F04
:100F2800080083120313A1002108A0000630031053
:100F3800A00DFF3E031D9B2F770820077F39803EB9
:100F48000A128A1160240A128A11080083120313F4
:100F58000C1FAF2FB02FB72F0C130A128A11482776
:100F68000A128A11B72F73088A00720E8300FE0EC8
:100F78007E0E09007E088A007F0882000A128A1104
:100F8800BE270A128A118000840A04087D06031904
:100F98000034FF0A0319FE0AC22F0A128A112727F2
:100FA8000A128A11750883120313DB007408DA0029
:100FB8007708D9007608D800080083160317890136
:100FC800F03083160313860083120313860108008A
:100FD80001300A128A1160240A128A11080079085D
:0A0FE800F5007808F400F82F080067
:04400E00D4E0FFFFFC
:00000001FF
